{
  "transactions": [
    {
      "hash": "0x21fa7a17cf328d1742ac6a97260840ce71bcb649cb53965594c0d1382f583c69",
      "transactionType": "CALL",
      "contractName": null,
      "contractAddress": "0x158c23a40208eefaedbe9c80502b59e88755c9a5",
      "function": "adminMintBatch(address[],uint256)",
      "arguments": [
        "[0x99bbb439a42abb119015c6d3099C3355De0Def1B, 0x233Ac30A896C5aBb30A21e98C755d8B0cd463DFB, 0x902b13E46305E3AE10F70871C6D0bca9E5446b07, 0x702566BED3CDf6804CB807f3489DFe567a6a1CBf, 0x1138E94cfa05744C7c00AAf9FB86dF9D8b39Ef14, 0xb15115A15d5992A756D003AE74C0b832918fAb75, 0x0000049348454fb7B682260F72011087923f6Ed2, 0x2E464dD8F27F1fCDDF67087983b712b4236Eb16b, 0x016df27C5a9e479AB01e3053CD5a1967f96eCD6E, 0x1d41D6B1091C1a8A334096771bd1776019243d5e]",
        "11"
      ],
      "transaction": {
        "from": "0x3b909177382dd656def6efd0dff3c2556b6f6d94",
        "to": "0x158c23a40208eefaedbe9c80502b59e88755c9a5",
        "gas": "0x7e4b6",
        "value": "0x0",
        "input": "0xc99459240000000000000000000000000000000000000000000000000000000000000040000000000000000000000000000000000000000000000000000000000000000b000000000000000000000000000000000000000000000000000000000000000a00000000000000000000000099bbb439a42abb119015c6d3099c3355de0def1b000000000000000000000000233ac30a896c5abb30a21e98c755d8b0cd463dfb000000000000000000000000902b13e46305e3ae10f70871c6d0bca9e5446b07000000000000000000000000702566bed3cdf6804cb807f3489dfe567a6a1cbf0000000000000000000000001138e94cfa05744c7c00aaf9fb86df9d8b39ef14000000000000000000000000b15115a15d5992a756d003ae74c0b832918fab750000000000000000000000000000049348454fb7b682260f72011087923f6ed20000000000000000000000002e464dd8f27f1fcddf67087983b712b4236eb16b000000000000000000000000016df27c5a9e479ab01e3053cd5a1967f96ecd6e0000000000000000000000001d41d6b1091c1a8a334096771bd1776019243d5e",
        "nonce": "0x3d",
        "chainId": "0xa"
      },
      "additionalContracts": [],
      "isFixedGasLimit": false
    }
  ],
  "receipts": [
    {
      "status": "0x1",
      "cumulativeGasUsed": "0x4f5bee",
      "logs": [
        {
          "address": "0x158c23a40208eefaedbe9c80502b59e88755c9a5",
          "topics": [
            "0xc3d58168c5ae7397731d063d5bbf3d657854427343f4c083240f7aacaa2d0f62",
            "0x0000000000000000000000003b909177382dd656def6efd0dff3c2556b6f6d94",
            "0x0000000000000000000000000000000000000000000000000000000000000000",
            "0x00000000000000000000000099bbb439a42abb119015c6d3099c3355de0def1b"
          ],
          "data": "0x000000000000000000000000000000000000000000000000000000000000000b0000000000000000000000000000000000000000000000000000000000000001",
          "blockHash": "0x6eca9226807b928f762b04d3d2833398327b8cf8a6e93ceae49334ee8aef497e",
          "blockNumber": "0x7e751b7",
          "transactionHash": "0x21fa7a17cf328d1742ac6a97260840ce71bcb649cb53965594c0d1382f583c69",
          "transactionIndex": "0xd",
          "logIndex": "0x12",
          "removed": false
        },
        {
          "address": "0x158c23a40208eefaedbe9c80502b59e88755c9a5",
          "topics": [
            "0xc3d58168c5ae7397731d063d5bbf3d657854427343f4c083240f7aacaa2d0f62",
            "0x0000000000000000000000003b909177382dd656def6efd0dff3c2556b6f6d94",
            "0x0000000000000000000000000000000000000000000000000000000000000000",
            "0x000000000000000000000000233ac30a896c5abb30a21e98c755d8b0cd463dfb"
          ],
          "data": "0x000000000000000000000000000000000000000000000000000000000000000b0000000000000000000000000000000000000000000000000000000000000001",
          "blockHash": "0x6eca9226807b928f762b04d3d2833398327b8cf8a6e93ceae49334ee8aef497e",
          "blockNumber": "0x7e751b7",
          "transactionHash": "0x21fa7a17cf328d1742ac6a97260840ce71bcb649cb53965594c0d1382f583c69",
          "transactionIndex": "0xd",
          "logIndex": "0x13",
          "removed": false
        },
        {
          "address": "0x158c23a40208eefaedbe9c80502b59e88755c9a5",
          "topics": [
            "0xc3d58168c5ae7397731d063d5bbf3d657854427343f4c083240f7aacaa2d0f62",
            "0x0000000000000000000000003b909177382dd656def6efd0dff3c2556b6f6d94",
            "0x0000000000000000000000000000000000000000000000000000000000000000",
            "0x000000000000000000000000902b13e46305e3ae10f70871c6d0bca9e5446b07"
          ],
          "data": "0x000000000000000000000000000000000000000000000000000000000000000b0000000000000000000000000000000000000000000000000000000000000001",
          "blockHash": "0x6eca9226807b928f762b04d3d2833398327b8cf8a6e93ceae49334ee8aef497e",
          "blockNumber": "0x7e751b7",
          "transactionHash": "0x21fa7a17cf328d1742ac6a97260840ce71bcb649cb53965594c0d1382f583c69",
          "transactionIndex": "0xd",
          "logIndex": "0x14",
          "removed": false
        },
        {
          "address": "0x158c23a40208eefaedbe9c80502b59e88755c9a5",
          "topics": [
            "0xc3d58168c5ae7397731d063d5bbf3d657854427343f4c083240f7aacaa2d0f62",
            "0x0000000000000000000000003b909177382dd656def6efd0dff3c2556b6f6d94",
            "0x0000000000000000000000000000000000000000000000000000000000000000",
            "0x000000000000000000000000702566bed3cdf6804cb807f3489dfe567a6a1cbf"
          ],
          "data": "0x000000000000000000000000000000000000000000000000000000000000000b0000000000000000000000000000000000000000000000000000000000000001",
          "blockHash": "0x6eca9226807b928f762b04d3d2833398327b8cf8a6e93ceae49334ee8aef497e",
          "blockNumber": "0x7e751b7",
          "transactionHash": "0x21fa7a17cf328d1742ac6a97260840ce71bcb649cb53965594c0d1382f583c69",
          "transactionIndex": "0xd",
          "logIndex": "0x15",
          "removed": false
        },
        {
          "address": "0x158c23a40208eefaedbe9c80502b59e88755c9a5",
          "topics": [
            "0xc3d58168c5ae7397731d063d5bbf3d657854427343f4c083240f7aacaa2d0f62",
            "0x0000000000000000000000003b909177382dd656def6efd0dff3c2556b6f6d94",
            "0x0000000000000000000000000000000000000000000000000000000000000000",
            "0x0000000000000000000000001138e94cfa05744c7c00aaf9fb86df9d8b39ef14"
          ],
          "data": "0x000000000000000000000000000000000000000000000000000000000000000b0000000000000000000000000000000000000000000000000000000000000001",
          "blockHash": "0x6eca9226807b928f762b04d3d2833398327b8cf8a6e93ceae49334ee8aef497e",
          "blockNumber": "0x7e751b7",
          "transactionHash": "0x21fa7a17cf328d1742ac6a97260840ce71bcb649cb53965594c0d1382f583c69",
          "transactionIndex": "0xd",
          "logIndex": "0x16",
          "removed": false
        },
        {
          "address": "0x158c23a40208eefaedbe9c80502b59e88755c9a5",
          "topics": [
            "0xc3d58168c5ae7397731d063d5bbf3d657854427343f4c083240f7aacaa2d0f62",
            "0x0000000000000000000000003b909177382dd656def6efd0dff3c2556b6f6d94",
            "0x0000000000000000000000000000000000000000000000000000000000000000",
            "0x000000000000000000000000b15115a15d5992a756d003ae74c0b832918fab75"
          ],
          "data": "0x000000000000000000000000000000000000000000000000000000000000000b0000000000000000000000000000000000000000000000000000000000000001",
          "blockHash": "0x6eca9226807b928f762b04d3d2833398327b8cf8a6e93ceae49334ee8aef497e",
          "blockNumber": "0x7e751b7",
          "transactionHash": "0x21fa7a17cf328d1742ac6a97260840ce71bcb649cb53965594c0d1382f583c69",
          "transactionIndex": "0xd",
          "logIndex": "0x17",
          "removed": false
        },
        {
          "address": "0x158c23a40208eefaedbe9c80502b59e88755c9a5",
          "topics": [
            "0xc3d58168c5ae7397731d063d5bbf3d657854427343f4c083240f7aacaa2d0f62",
            "0x0000000000000000000000003b909177382dd656def6efd0dff3c2556b6f6d94",
            "0x0000000000000000000000000000000000000000000000000000000000000000",
            "0x0000000000000000000000000000049348454fb7b682260f72011087923f6ed2"
          ],
          "data": "0x000000000000000000000000000000000000000000000000000000000000000b0000000000000000000000000000000000000000000000000000000000000001",
          "blockHash": "0x6eca9226807b928f762b04d3d2833398327b8cf8a6e93ceae49334ee8aef497e",
          "blockNumber": "0x7e751b7",
          "transactionHash": "0x21fa7a17cf328d1742ac6a97260840ce71bcb649cb53965594c0d1382f583c69",
          "transactionIndex": "0xd",
          "logIndex": "0x18",
          "removed": false
        },
        {
          "address": "0x158c23a40208eefaedbe9c80502b59e88755c9a5",
          "topics": [
            "0xc3d58168c5ae7397731d063d5bbf3d657854427343f4c083240f7aacaa2d0f62",
            "0x0000000000000000000000003b909177382dd656def6efd0dff3c2556b6f6d94",
            "0x0000000000000000000000000000000000000000000000000000000000000000",
            "0x0000000000000000000000002e464dd8f27f1fcddf67087983b712b4236eb16b"
          ],
          "data": "0x000000000000000000000000000000000000000000000000000000000000000b0000000000000000000000000000000000000000000000000000000000000001",
          "blockHash": "0x6eca9226807b928f762b04d3d2833398327b8cf8a6e93ceae49334ee8aef497e",
          "blockNumber": "0x7e751b7",
          "transactionHash": "0x21fa7a17cf328d1742ac6a97260840ce71bcb649cb53965594c0d1382f583c69",
          "transactionIndex": "0xd",
          "logIndex": "0x19",
          "removed": false
        },
        {
          "address": "0x158c23a40208eefaedbe9c80502b59e88755c9a5",
          "topics": [
            "0xc3d58168c5ae7397731d063d5bbf3d657854427343f4c083240f7aacaa2d0f62",
            "0x0000000000000000000000003b909177382dd656def6efd0dff3c2556b6f6d94",
            "0x0000000000000000000000000000000000000000000000000000000000000000",
            "0x000000000000000000000000016df27c5a9e479ab01e3053cd5a1967f96ecd6e"
          ],
          "data": "0x000000000000000000000000000000000000000000000000000000000000000b0000000000000000000000000000000000000000000000000000000000000001",
          "blockHash": "0x6eca9226807b928f762b04d3d2833398327b8cf8a6e93ceae49334ee8aef497e",
          "blockNumber": "0x7e751b7",
          "transactionHash": "0x21fa7a17cf328d1742ac6a97260840ce71bcb649cb53965594c0d1382f583c69",
          "transactionIndex": "0xd",
          "logIndex": "0x1a",
          "removed": false
        },
        {
          "address": "0x158c23a40208eefaedbe9c80502b59e88755c9a5",
          "topics": [
            "0xc3d58168c5ae7397731d063d5bbf3d657854427343f4c083240f7aacaa2d0f62",
            "0x0000000000000000000000003b909177382dd656def6efd0dff3c2556b6f6d94",
            "0x0000000000000000000000000000000000000000000000000000000000000000",
            "0x0000000000000000000000001d41d6b1091c1a8a334096771bd1776019243d5e"
          ],
          "data": "0x000000000000000000000000000000000000000000000000000000000000000b0000000000000000000000000000000000000000000000000000000000000001",
          "blockHash": "0x6eca9226807b928f762b04d3d2833398327b8cf8a6e93ceae49334ee8aef497e",
          "blockNumber": "0x7e751b7",
          "transactionHash": "0x21fa7a17cf328d1742ac6a97260840ce71bcb649cb53965594c0d1382f583c69",
          "transactionIndex": "0xd",
          "logIndex": "0x1b",
          "removed": false
        }
      ],
      "logsBloom": "0x00000000020900000010000000020000000000000000000000000000000000000000000000000000000000000000000000000000000400010000000001002000000000000000000000000000000000000000000400000000002000000000010000000000020000004000000000004800000000000200000001000000001000000010000000000000000000000000100000200000000800000000000000000000000000000000000000000000000000000000000000402000000000000100000000000000040000000000000140000000000000200008002000000000000020040001000000010000000000100002000400000000000000000000080000000000",
      "type": "0x2",
      "transactionHash": "0x21fa7a17cf328d1742ac6a97260840ce71bcb649cb53965594c0d1382f583c69",
      "transactionIndex": "0xd",
      "blockHash": "0x6eca9226807b928f762b04d3d2833398327b8cf8a6e93ceae49334ee8aef497e",
      "blockNumber": "0x7e751b7",
      "gasUsed": "0x5b6f6",
      "effectiveGasPrice": "0xdc1d",
      "from": "0x3b909177382dd656def6efd0dff3c2556b6f6d94",
      "to": "0x158c23a40208eefaedbe9c80502b59e88755c9a5",
      "contractAddress": null,
      "l1BaseFeeScalar": "0x146b",
      "l1BlobBaseFee": "0x1",
      "l1BlobBaseFeeScalar": "0xf79c5",
      "l1Fee": "0x3c34b49a2",
      "l1GasPrice": "0x2996a90b",
      "l1GasUsed": "0x114f"
    }
  ],
  "libraries": [],
  "pending": [],
  "returns": {},
  "timestamp": 1740799278,
  "chain": 10,
  "commit": "4abbc1c"
}